:100000000C94DA040C94E20A0C94BB0A0C940205DA
:100010000C9402050C9402050C9402050C94020544
:100020000C9402050C9402050C9402050C94020534
:100030000C9402050C9402050C9402050C94020524
:100040000C94710A0C9402050C943F0A0C94190A42
:100050000C9402050C9402050C9402050C94020504
:100060000C9402050C9402050000000024002700F7
:100070002A0000000000250028002B0009603D0038
:100080000000000071310000007A736177320000D7
:10009000637864653433000020766674723500003E
:1000A0006E62686779360000006D6A753738000047
:1000B0002C6B696F303900002E2F6C3B702D0000C7
:1000C0000027005B3D000000000D5D005C000000AB
:1000D000000000000008000031003437000000304C
:1000E0002E323536381B00002B332D2A39E1147798
:1000F000636C722043757276652054726163657219
:100100000D2331302031300D6F73632077206F73F2
:10011000206D61672073696E0D61646320636830D0
:1001200020760D616463206368312076320D64614E
:10013000632073696E206368300D737562207632B8
:10014000207620690D707274207620690D656E64CA
:100150000D73657420647420302E30310D73657416
:10016000207720330D736574206D61782031303035
:1001700030300D7365742063683120310D73657400
:10018000206D616720392E380D73657420617667A4
:100190002031360D73657420666D7420330D2A206E
:1001A000616463312C646163302D2D2D314B2D2D15
:1001B000616463302C6475742D2D2D676E640D2A77
:1001C0002063616C206164632C20636E74722D79EE
:1001D00020666F7220706C6F740D00636C72206704
:1001E0007261766974792076656C6F6369747920C1
:1001F000706F736974696F6E0D2331302032302057
:10020000313020340D65756C206163632067206C8C
:10021000696D2076656C0D65756C2076656C206760
:10022000206C696D20706F730D7072742061636350
:100230002076656C20706F7320740D656E640D738D
:10024000657420616363202D392E380D7365742029
:10025000706F732031300D736574206720310D731A
:10026000657420647420302E3030360D7365742030
:100270006D617820312E3532340D73657420666DD2
:100280007420330D00636C72206C6F772070617383
:10029000732066696C7465720D2331302031300D26
:1002A0006F7363206731206F73206D6167207369FE
:1002B0006E0D6461632073696E206368300D616444
:1002C000632063683020610D7375622061206F7553
:1002D0007420696E0D65756C20696E206731206C25
:1002E000696D206F75740D7072742061206F757464
:1002F0000D656E640D7365742063683020300D7376
:10030000657420673120342E3930360D73657420C2
:100310006C696D2031300D736574206F7320300D62
:10032000736574206D616720372E30370D736574E7
:1003300020647420302E30310D736574206D617827
:1003400020313030300D00636C722046696E6420BD
:100350006375626520726F6F74206F662033206151
:100360006E642037207573696E67206974657261E9
:1003700074696F6E0D2331302031302031300D73B0
:100380007767207477206F75740D6D756C206F75AD
:1003900074206B206D670D73756D206D672067206D
:1003A00067320D73756D206F7574206F7320696EE1
:1003B0000D73756220696E20693320730D65756C4D
:1003C0002073206732206C696D20690D6D756C207B
:1003D0006920692069320D6D756C206920693220B1
:1003E00069330D70727420696E20692069330D7055
:1003F000727420696E20692069330D656E640D7317
:100400006574206F757420320D736574206F7320CE
:10041000350D73657420747720302E30320D73657E
:100420007420647420302E3030310D736574206D6B
:10043000617820302E3132380D7365742067203496
:10044000300D736574206B202D330D736574206639
:100450006D7420340D00636C722063616C63756C85
:1004600061746520524D5320766F6C74616765200E
:10047000666F7220612053696E6520776176650D25
:10048000233520350D6F73632077206F73206D61E6
:1004900067206F75740D6D756C206F7574206F75A6
:1004A00074206F320D737562206F3220696F20697E
:1004B0006E0D696E7420696E206731206C696D2045
:1004C000696F0D73717420696F20726D730D707296
:1004D00074206F757420726D730D656E640D736595
:1004E0007420673120310D73657420647420302EC0
:1004F0003030310D736574206D617820352E3132C6
:100500000D73657420772033372E370D7365742093
:100510006F7320300D736574206D616720350D7326
:100520006574206465632031300D00636C72203186
:10053000304B487A204144432072656164207769DA
:10054000746820706C6F740D2331300D6F736320ED
:100550007720302035206F75740D646163206F75CE
:100560007420300D626E7A206C7020350D727374B9
:100570002031206C700D7273742030206D0D7273F9
:10058000742030206E0D727374203020746D0D73E2
:100590007562206E206E3220666C670D627270206C
:1005A000666C6720350D6164632063683020780DC8
:1005B0007374612078206E0D73756D206E2031206C
:1005C0006E0D656E640D737562206D206E3220664F
:1005D0006C670D62727020666C6720350D6C64610B
:1005E000206D20780D70727420780D73756D206DFC
:1005F0002031206D0D656E640D73756220746D2061
:10060000743320666C670D62727020666C672033ED
:100610000D73756D20746D203120746D0D656E64E1
:100620000D7273742030206C700D656E640D7365EF
:1006300074203120310D736574203220320D7365C2
:1006400074203320330D736574206E3220323538B8
:100650000D736574203420340D7365742035203596
:100660000D7365742074332032303030300D736573
:100670007420647420302E303030310D7365742056
:100680007720313030300D7365742061766720310A
:10069000360D73657420666D7420330D7365742098
:1006A0006D617820393939390D00636C7220426CE4
:1006B000696E6B20627569742D696E204C4544200B
:1006C0007573696E67206D756C7469706C792062E2
:1006D0006C6F636B0D23320D6D756C2070202D31A6
:1006E00020700D6F75742070204C45440D7072663B
:1006F00020700D70726620700D70726620700D7023
:10070000726620700D656E640D736574202D312046
:100710002D310D736574206D617820313030300DCE
:10072000736574207020310D736574204C4544202E
:1007300032350D73657420647420310D0072656D5F
:10074000207468697264206F7264657220737973B3
:1007500074656D0D23313030203130302032353624
:100760000D636C720D6D756C206132206931206DE6
:10077000310D696E74207331206F6E65204C2069D5
:10078000310D6D756C206131206932206D340D6939
:100790006E74206931206F6E65204C2069320D73B4
:1007A000756D206D31206D342073320D6D756C20A8
:1007B00050206933206D330D696E74206932206FCB
:1007C0006E65204C2069330D6D756C206D32206292
:1007D00030206F75740D73756D207332206D352068
:1007E00073330D6D756C2069332050206D320D6DA3
:1007F000756C206D33206130206D350D7072742062
:100800006F757420696E20740D73756220696E2097
:1008100073332073310D656E640D7365742061321E
:1008200020302E34350D73657420613120302E3028
:10083000350D73657420613020352E3135652D36C8
:100840000D736574205020323030300D7365742084
:10085000647420302E310D736574206D6178202D05
:100860003235330D736574206F6E6520310D7365FD
:100870007420696E2034300D736574206230203529
:100880002E3135652D360D73657420646563203116
:10089000300D736574204C20302E300D736574203C
:1008A000623020352E3135652D360D73657420315B
:1008B0003030203130300D73657420666D74203215
:1008C0000D0072656D2073696E20636F732074650F
:1008D0007874206F75740D23313020313020313021
:1008E0002031300D636C720D6F73632077206F734E
:1008F000206D61672073696E0D73756220302073FF
:10090000696E206E65670D696E74206E656720776D
:10091000206C696D20636F730D7072742073696E43
:1009200020636F730D656E640D73657420647420AD
:10093000302E3031350D736574207720350D736599
:1009400074206D61782031303030300D7365742043
:100950006D616720380D73657420636F7320380DE7
:1009600073657420666D7420320D00000000002352
:100970000026002900040404040404040402020202
:1009800002020203030303030301020408102040D0
:100990008001020408102001020408102000000059
:1009A000080002010000030407000000000000002E
:1009B0000000090B11241FBECFEFD8E0DEBFCDBF72
:1009C00011E0A0E0B1E0E2E6F0E202C005900D9295
:1009D000A833B107D9F723E0A8E3B1E001C01D9225
:1009E000AA32B207E1F714E0CAEDD4E004C02197BF
:1009F000FE010E942910C93DD107C9F70E94720B60
:100A00000C942F100C9400000895AF92BF92CF92D7
:100A1000DF92EF92FF920F931F93CF93DF936C01BE
:100A20007B018B01040F151FEB015E01AE18BF089F
:100A3000C017D10759F06991D601ED91FC91019051
:100A4000F081E02DC6010995892B79F7C501DF9169
:100A5000CF911F910F91FF90EF90DF90CF90BF90BB
:100A6000AF900895FC01538D448D252F30E0842FE5
:100A700090E0821B930B541710F0CF9608950197C6
:100A80000895FC01918D828D981761F0A28DAE0FB3
:100A9000BF2FB11D5D968C91928D9F5F9F73928F3A
:100AA00090E008958FEF9FEF0895FC01918D828D66
:100AB000981731F0828DE80FF11D858D90E0089533
:100AC0008FEF9FEF0895FC01918D228D892F90E08B
:100AD000805C9F4F821B91098F73992708958AE448
:100AE00091E00E94630521E0892B09F420E0822F28
:100AF000089580E090E0892B29F00E946F05811114
:100B00000C9400000895FC01A48DA80FB92FB11D0D
:100B1000A35ABF4F2C91848D90E001968F73992733
:100B2000848FA689B7892C93A089B1898C91837011
:100B300080648C93938D848D981306C00288F3890A
:100B4000E02D80818F7D80830895EF92FF920F9337
:100B50001F93CF93DF93EC0181E0888F9B8D8C8D69
:100B600098131AC0E889F989808185FF15C09FB75D
:100B7000F894EE89FF896083E889F9898081837020
:100B8000806480839FBF81E090E0DF91CF911F91CF
:100B90000F91FF90EF900895F62E0B8D10E00F5FF0
:100BA0001F4F0F731127E02E8C8D8E110CC00FB6C6
:100BB00007FCFACFE889F989808185FFF5CFCE015E
:100BC0000E948305F1CFEB8DEC0FFD2FF11DE35A51
:100BD000FF4FF0829FB7F8940B8FEA89FB898081E1
:100BE0008062CFCF682F8AE491E00C94A505CF9363
:100BF000DF93EC01888D8823B9F0AA89BB89E88945
:100C0000F9898C9185FD03C0808186FD0DC00FB6EA
:100C100007FCF7CF8C9185FFF2CF808185FFEDCF68
:100C2000CE010E948305E9CFDF91CF9108958330F3
:100C300081F028F4813099F08230A9F0089587304E
:100C4000A9F08830C9F08430B1F4809180008F7DA4
:100C500003C0809180008F7780938000089584B5D1
:100C60008F7784BD089584B58F7DFBCF8091B000D0
:100C70008F778093B00008958091B0008F7DF9CF79
:100C8000CF93DF93E0EAF9E08491ECE8F9E0D491C6
:100C9000E8E7F9E0C491CC23A1F081110E94170686
:100CA000EC2FF0E0EE0FFF1FE559F64FA591B49140
:100CB000EC91ED2381E090E009F480E0DF91CF91A9
:100CC000089580E090E0FACF1F93CF93DF93282F11
:100CD00030E0F901E356F64F8491F901E757F64FFA
:100CE000D491F901EB58F64FC491CC23A9F0162FFB
:100CF00081110E941706EC2FF0E0EE0FFF1FEE5857
:100D0000FF4FA591B4918FB7F894EC91111108C0E1
:100D1000D095DE23DC938FBFDF91CF911F91089593
:100D2000DE2BF8CFCF93DF9390E0FC01E757F64F2F
:100D300024918B58964FFC0184918823D1F090E048
:100D4000880F991FFC01E859FF4FA591B491FC0150
:100D5000EE58FF4FC591D491623071F49FB7F8946B
:100D60003C91822F809583238C93E8812E2B2883BE
:100D70009FBFDF91CF9108958FB7F894EC912E2B00
:100D80002C938FBFF6CF3FB7F894809139019091A3
:100D90003A01A0913B01B0913C0126B5A89B05C04A
:100DA0002F3F19F00196A11DB11D3FBFBA2FA92FEA
:100DB000982F8827BC01CD01620F711D811D911DE7
:100DC00042E0660F771F881F991F4A95D1F7089553
:100DD0008F929F92AF92BF92CF92DF92EF92FF924B
:100DE0004B015C010E94C3066B017C010E94C3069B
:100DF0006C197D098E099F09683E73408105910534
:100E0000A8F321E0821A9108A108B10888EEC80E63
:100E100083E0D81EE11CF11C81149104A104B104EB
:100E200029F7FF90EF90DF90CF90BF90AF909F9009
:100E30008F900895CF93DF93F894FC01E05EFE4F0E
:100E400041E050E002C0440F551F6A95E2F720814F
:100E50003181242B352B3183208378943297019074
:100E6000F081E02D9F01F7FF02C0209530952115FC
:100E7000310561F12150310970E060E0F7FF03C0F6
:100E80002D3F310549F1DC01A20FB31F4C91437096
:100E900051E0540FDB01A50FB11D5F97E8F4DB01B2
:100EA000A250BF4FA80FB91FEC01C20FD31FC881BA
:100EB000CD932115310569F0215031095150A1F729
:100EC00050E04F5F5F4F640F751FD8CF2DEF30E0BC
:100ED000D3CF2DEF30E0F2CF845E9E4FFC017183C3
:100EE0006083DF91CF910895F894FC01E25EFE4F9C
:100EF0002081318137FF11C0A90140955095840FA1
:100F0000951FDC016C932230BFEF3B0781F021502D
:100F100031093183208378940895820F931FDC0177
:100F20006C932D3F310519F02F5F3F4FF2CF30E02A
:100F300020E0EFCFFC0101900020E9F73197AF01ED
:100F4000481B590BBC018AE491E00C9405051F93E2
:100F5000CF93DF93182FE898C0E0D1E084E095E0CC
:100F60009983888361E082E00E94920660E082E0DB
:100F70000E9464068BED91E00197F1F7E9EEF1E054
:100F800015861686138281E0848712838BEC99E0A4
:100F900099838883E9E6F0E080818C7F826080839A
:100FA000E89A61E083E00E94920660E083E00E949C
:100FB000640662E082E0DF91CF911F910C9492066B
:100FC0008F929F92AF92BF92CF92DF92EF92FF9259
:100FD0000F931F93CF93DF93EC018FB7F89480901A
:100FE000460190904701A0904801B09049018FBF01
:100FF0008E010E5D1E4FF80180819181A281B38127
:1010000075016401C81AD90AEA0AFB0AD701C601A8
:101010000497A109B109883F9740A105B10538F5AA
:1010200024E0C20ED11CE11CF11CC701B60133E063
:1010300096958795779567953A95D1F7CE010E9459
:10104000740769E4CE010E947407F80180829182DE
:10105000A282B382DF91CF911F910F91FF90EF9009
:10106000DF90CF90BF90AF909F908F900895FCEF4E
:10107000CF16F7E0DF06E104F10460F320E2C20ED0
:10108000D11CE11CF11C26E0F694E794D794C79498
:101090002A95D1F7C114D10481E0E806F10428F0C3
:1010A000CC24CA94DC2CE12CF12C6C2DCE010E94B6
:1010B000740799278F2D7E2D6D2DCE010E94740708
:1010C0006AE4C0CF0F931F93CF93DF93D82F2FB72E
:1010D000F8948091460190914701A0914801B09108
:1010E00049012FBF8C019D01060F171F211D311DC6
:1010F000C091F701C11107C04091F601442319F0D6
:101100001092F601CEEFEFB7F8944091460150915E
:1011100047016091480170914901EFBFC11139C089
:10112000401751076207730718F3081719072A07B2
:101130003B0728F4481759076A077B07C8F6009150
:10114000E9011091EA01C8010E94E00760E0C801CE
:101150000E9474076DE1C8010E94740767E014C023
:101160000091E9011091EA01C8010E94E0076D2F8A
:10117000C8010E9474076C2FC8010E9474076AE1BD
:10118000C8010E94740766E0C8010E941A0780E047
:1011900009C0DC13E5CFF8948091F7011092F701B4
:1011A000789481E0DF91CF911F910F9108951F9363
:1011B000CF93DF93EC01162F0E94E007612F660F9B
:1011C000660FCE010E947407612FCE01DF91CF918F
:1011D0001F910C941A07FF920F931F93CF93DF93E5
:1011E000C091E701D091E801E8E7F9E0E491F0E08F
:1011F000EE0FFF1FE559F64FA591B4911C91ECE855
:10120000F9E0E4911E230E94C306688779878A87E4
:101210009B878B818930C8F4813008F1112391F0CC
:10122000282F2150330BA90121E030E001C0220F0B
:101230004A95EAF79A81922B9A8391E02C852111A5
:1012400090E09C878F5F8B8304C0893009F18A30DE
:10125000B9F1DF91CF911F910F91FF900895111176
:1012600007C01D868B818F5F8B8381E08C87F1CFD8
:1012700060E0888199810E94D70881E08D87888508
:101280009985AA85BB858C839D83AE83BF83EACF76
:1012900081E0111101C080E09C85981779F061E030
:1012A000888199810E94D70881E08D8788859985FA
:1012B000AA85BB858C839D83AE83BF838B81C2CF80
:1012C00011110FC062E0888199810E94D70881E0E6
:1012D0008D8788859985AA85BB858C839D83AE8300
:1012E000BF838D85811118C008811981FA80C801DA
:1012F0000E94E0076F2DC8010E94740765E4C801D1
:101300000E9474071A818E85882329F065E08F85F5
:1013100098890E94D7081E871B821A829ACFFC01E7
:1013200015861382128281E0848716868BEE98E000
:101330009093010180930001E9E6F0E080818C7FC9
:1013400082608083E89A08951F93CF93DF93182FCC
:10135000C091E901D091EA01CE010E94E007612F1E
:10136000CE010E94740761E4CE010E947407812FB0
:101370000E94A7076AE070E08AEF0E946208C82F07
:10138000811104C089EE91E00E948F098C2FDF91BA
:10139000CF911F9108950F931F93CF93DF93C09127
:1013A000E701D091E8018B818930E0F4813020F1B0
:1013B0000A8110E08150990B02C0159507958A9516
:1013C000E2F701701127602F83E00E9464069C857C
:1013D000892F012B19F081E0911180E08C878B819E
:1013E0008F5F0BC08A3081F050F08B3091F0DF912D
:1013F000CF911F910F91089581E08B83F8CF6C8579
:1014000083E00E946406EBCF62E083E00E949206D4
:10141000E6CF0E944006892B29F064E088819981FB
:101420000E94D708CE01DF91CF911F910F910C94AC
:101430008F091F920F920FB60F9211242F933F9393
:101440004F935F936F937F938F939F93AF93BF93CC
:10145000EF93FF938AE491E00E948305FF91EF915F
:10146000BF91AF919F918F917F916F915F914F91BC
:101470003F912F910F900FBE0F901F9018951F92C4
:101480000F920FB60F9211242F938F939F93EF9388
:10149000FF93E0915A01F0915B018081E09160013E
:1014A000F091610182FD1BC09081809163018F5F8B
:1014B0008F7320916401821741F0E0916301F0E0A5
:1014C000E65BFE4F958F80936301FF91EF919F91B3
:1014D0008F912F910F900FBE0F901F9018958081C4
:1014E000F4CF1F920F920FB60F9211242F933F93B8
:1014F0008F939F93AF93BF93809146019091470143
:10150000A0914801B09149013091380123E0230FA7
:101510002D3758F50196A11DB11D209338018093F8
:10152000460190934701A0934801B09349018091EF
:10153000390190913A01A0913B01B0913C01019693
:10154000A11DB11D8093390190933A01A0933B01F5
:10155000B0933C01BF91AF919F918F913F912F919B
:101560000F900FBE0F901F90189526E8230F02963C
:10157000A11DB11DD2CF1F920F920FB60F92112451
:101580002F933F934F935F936F937F938F939F938B
:10159000AF93BF93EF93FF93E0910201F0910301AA
:1015A0000995FF91EF91BF91AF919F918F917F919D
:1015B0006F915F914F913F912F910F900FBE0F90C0
:1015C0001F9018951F920F920FB60F9211242F9310
:1015D0003F934F935F936F937F938F939F93AF93BB
:1015E000BF93EF93FF93E0910001F0910101099502
:1015F000FF91EF91BF91AF919F918F917F916F91EB
:101600005F914F913F912F910F900FBE0F901F90C0
:101610001895EAE4F1E01382128288EE93E0A0E0EC
:10162000B0E084839583A683B78388E091E09183BB
:10163000808385EC90E09587848784EC90E09787A1
:10164000868780EC90E0918B808B81EC90E0938B8F
:10165000828B82EC90E0958B848B86EC90E0978B6C
:10166000868B118E128E138E148E84E092E010926F
:101670002103109220032FEF3FEF30932303209399
:101680002203109225031092240310922603109235
:1016900027031092280310922903EAEFF1E0108249
:1016A0001182128213821482158217821682918708
:1016B0008087E9EEF1E0128213821482158216828D
:1016C0001782108611861286138621E024871586DC
:1016D000908B8787168691838083F093E801E0934F
:1016E000E7010895789484B5826084BD84B58160F3
:1016F00084BD85B5826085BD85B5816085BD8091DD
:101700006E00816080936E00109281008091810054
:10171000826080938100809181008160809381004C
:10172000809180008160809380008091B10084600E
:101730008093B1008091B00081608093B00080916F
:101740007A00846080937A0080917A00826080932E
:101750007A0080917A00816080937A0080917A008B
:10176000806880937A001092C100E0915A01F09154
:101770005B0182E08083E0915601F0915701108275
:10178000E0915801F091590183E080831092620149
:10179000E0915E01F0915F0186E08083E0915C0161
:1017A000F0915D01808180618083E0915C01F09126
:1017B0005D01808188608083E0915C01F0915D0132
:1017C000808180688083E0915C01F0915D0180817F
:1017D0008F7D808362E082E00E94920662E083E077
:1017E0000E9492060E94400689EE91E00E948F09B5
:1017F00081E08093FF016EEE72E08AEA0E94620847
:1018000010922503109224038FEF9FEF90932303F0
:101810008093220310922103109220038DEE0E94E8
:10182000A409882319F082E00E94A40982E090E0D4
:1018300090933E0180933D01FF24F39400E010E07B
:10184000EE24E394CFEFDFEF809124039091250302
:1018500061E0892BA1F02FB7F89480914601909117
:101860004701A0914801B09149012FBF27E0B695EB
:10187000A795979587952A95D1F7682F61708DE088
:101880000E946406F8949091F7011092F701789401
:10189000911152C08091F601882379F18090ED0179
:1018A0009090EE01A090EF01B090F00128EC820E34
:1018B000911CA11CB11C0E94C306681579058A05FC
:1018C0009B05D8F0B090EC01C090E901D090EA01FE
:1018D00033E0C6013B15E8F40E94E0076EEFC60155
:1018E0000E94740761E4C6010E9474078EEF0E9493
:1018F000A7071092FA011092FB010115110509F4D6
:10190000A3CF0E946F05882309F49ECF0E94000098
:101910009BCF0E94E0076B2DC6010E9474076DE407
:10192000C6010E9474071092F6011092EC01109209
:10193000EB01E092F501DDCF9A3A09F05AC0F89434
:101940009091F7011092F70178949E3F91F29923BC
:10195000A1F210924501903F09F056C0E092FB01C0
:1019600080E0809344012091420130914301232B78
:1019700009F044C1823109F441C184E491E00E943C
:101980009A0780914401823161F486E191E00E94DE
:101990009A0784E391E00E949A07D0934301C09391
:1019A00042018091420190914301181619060CF0F2
:1019B00020C364E670E080E090E00E94E806E091D9
:1019C0004201F09143013197E930F10508F00DC370
:1019D000E051F34F10924101109240010C942910F4
:1019E000100E460E7C0EB20EE80E1E0F540F8A0F1C
:1019F000C00F9C3F09F029C369E08091E9019091F3
:101A0000EA010E94D7089BCF903E19F4E092FA01B8
:101A1000A7CF2091000230910102F901E351FF4F5D
:101A2000E491E91313C02F5F3F4F2330310528F4B1
:101A3000309301022093000293CF10920102109282
:101A400000021092FA011092FB018ACF8091FB01F3
:101A50009431C9F0993511F0923121F4282F2F25B6
:101A60002093FD011092010210920002811106C024
:101A70008091FA01882361F09A35D1F01092FB0130
:101A80001092FA016DCF282F2F252093FC01EACF69
:101A9000983541F0973761F48091FF018F2580934D
:101AA000FF015ECF8091FE018F258093FE0158CF0C
:101AB00083EF890F813708F053CF292F2D50330B37
:101AC000F901E458FF4FE4918E2FEE2309F448CF3B
:101AD0002091FF0121110AC0993640F0EE3209F43D
:101AE0003FCF90ED9E0F9A3008F43ACF9091FD01D0
:101AF0002FE92E0F2A3190F42091FE01291711F0C1
:101B000080EE8E0F9FE9980F9A3108F02ACF9091BE
:101B1000FC01992309F425CF805623CF992309F49A
:101B200020CFE752EA3308F01CCFF0E0E656F24F40
:101B30000C942910F20DB10CB10CB10CB10CF40DD8
:101B4000E80DF60DF80DE60DD40DD60DD80DDA0D15
:101B5000DC0DDE0DE00DE20DE40DB10CF00DB10C6D
:101B6000EA0DB10CB10CB10CB10CB10CB10CB10C53
:101B7000B10CB10CB10CB10CB10CB10CB10CB10C7D
:101B8000B10CB10CB10CB10CB10CB10CB10CB10C6D
:101B9000B10CB10CB10CB10CB10CB10CEC0DFA0DD7
:101BA000EE0DB10CB10CFC0D81E2DBCE80E4D9CEA0
:101BB00083E2D7CE84E2D5CE85E2D3CE8EE5D1CEF8
:101BC00086E2CFCE8AE2CDCE88E2CBCE89E2C9CE04
:101BD0008FE5C7CE8BE2C5CE8BE7C3CE8DE7C1CEF6
:101BE0008AE3BFCE82E2BDCE8CE3BBCE8EE3B9CE1C
:101BF0008FE3B7CE8CE7B5CE8EE7B3CE9FEC980FD0
:101C0000993008F0BECED0934301C0934201082E14
:101C1000000C990BC0979093430180934201B1CE81
:101C20008091400190914101883A910508F0DDC111
:101C3000E0914001F0914101EE53F74FE491E093C0
:101C40003F0180913F01082E000C990B0E94F20584
:101C500061E070E080E090E00E94E80680913F0142
:101C60008D3051F464E670E080E090E00E94E80678
:101C70008AE090E00E94F20580914001909141013C
:101C800001969093410180934001CACF8091400119
:101C9000909141018438914008F0A7C1E091400142
:101CA000F0914101E35CF84FE491E0933F018091B2
:101CB0003F01082E000C990B0E94F20561E070E0D4
:101CC00080E090E00E94E80680913F018D3051F461
:101CD00064E670E080E090E00E94E8068AE090E030
:101CE0000E94F205809140019091410101969093EC
:101CF000410180934001CACF809140019091410100
:101D00008239910508F071C1E0914001F0914101E3
:101D1000E655F94FE491E0933F0180913F01082E91
:101D2000000C990B0E94F20561E070E080E090E009
:101D30000E94E80680913F018D3051F464E670E026
:101D400080E090E00E94E8068AE090E00E94F205C0
:101D500080914001909141010196909341018093BF
:101D60004001CACF80914001909141018E3791404E
:101D700008F03BC1E0914001F0914101E55DFA4F6F
:101D8000E491E0933F0180913F01082E000C990BF4
:101D90000E94F20561E070E080E090E00E94E806B9
:101DA00080913F018D3051F464E670E080E090E076
:101DB0000E94E8068AE090E00E94F20580914001CE
:101DC0009091410101969093410180934001CACFC7
:101DD0008091400190914101843D910508F005C139
:101DE000E0914001F0914101EA5AFB4FE491E09308
:101DF0003F0180913F01082E000C990B0E94F205D3
:101E000061E070E080E090E00E94E80680913F0190
:101E10008D3051F464E670E080E090E00E94E806C6
:101E20008AE090E00E94F20580914001909141018A
:101E300001969093410180934001CACF8091400167
:101E4000909141018E30914008F0CFC0E091400167
:101E5000F0914101E95BFC4FE491E0933F018091F7
:101E60003F01082E000C990B0E94F20561E070E022
:101E700080E090E00E94E80680913F018D3051F4AF
:101E800064E670E080E090E00E94E8068AE090E07E
:101E90000E94F2058091400190914101019690933A
:101EA000410180934001CACF80914001909141014E
:101EB000813C910508F099C0E0914001F091410109
:101EC000EB57FD4FE491E0933F0180913F01082ED5
:101ED000000C990B0E94F20561E070E080E090E058
:101EE0000E94E80680913F018D3051F464E670E075
:101EF00080E090E00E94E8068AE090E00E94F2050F
:101F0000809140019091410101969093410180930D
:101F10004001CACF8091400190914101893A9105D9
:101F200008F063C0E0914001F0914101E552FE4F9D
:101F3000E491E0933F0180913F01082E000C990B42
:101F40000E94F20561E070E080E090E00E94E80607
:101F500080913F018D3051F464E670E080E090E0C4
:101F60000E94E8068AE090E00E94F205809140011C
:101F70009091410101969093410180934001CACF15
:101F800080914001909141018A3E910570F5E09168
:101F90004001F0914101E051FF4FE491E0933F0196
:101FA00080913F01082E000C990B0E94F20561E020
:101FB00070E080E090E00E94E80680913F018D3063
:101FC00051F464E670E080E090E00E94E8068AE068
:101FD00090E00E94F20580914001909141010196AC
:101FE0009093410180934001CBCF10924301109216
:101FF0004201109244018091FF01882301F182E0A7
:1020000090E02091FE012223E9F024E030E06C0111
:10201000C22AD32A80913D0190913E01C816D9066B
:1020200009F46BCC8DEE0E94A409882319F08C2D45
:102030000E94A409D0923E01C0923D015ECC90E086
:1020400080E0DFCF30E020E0E2CF9E3F09F081CC9E
:1020500050CCEE0FFF1F0590F491E02D0994F894F9
:02206000FFCFB0
:102062000405040500000000A50505053205F70575
:102072006305410555052E2E2E20746F204C6F618D
:10208200642050726F6772616D20507265737320A5
:08209200312D39000D0A000098
:107E0000112484B714BE81FFF0D085E080938100F7
:107E100082E08093C00088E18093C10086E0809377
:107E2000C20080E18093C4008EE0C9D0259A86E02C
:107E300020E33CEF91E0309385002093840096BBD3
:107E4000B09BFECF1D9AA8958150A9F7CC24DD24C4
:107E500088248394B5E0AB2EA1E19A2EF3E0BF2EE7
:107E6000A2D0813461F49FD0082FAFD0023811F036
:107E7000013811F484E001C083E08DD089C08234E0
:107E800011F484E103C0853419F485E0A6D080C0E4
:107E9000853579F488D0E82EFF2485D0082F10E0AE
:107EA000102F00270E291F29000F111F8ED06801E7
:107EB0006FC0863521F484E090D080E0DECF843638
:107EC00009F040C070D06FD0082F6DD080E0C81688
:107ED00080E7D80618F4F601B7BEE895C0E0D1E017
:107EE00062D089930C17E1F7F0E0CF16F0E7DF06D8
:107EF00018F0F601B7BEE89568D007B600FCFDCFD4
:107F0000A601A0E0B1E02C9130E011968C91119780
:107F100090E0982F8827822B932B1296FA010C0160
:107F200087BEE89511244E5F5F4FF1E0A038BF0790
:107F300051F7F601A7BEE89507B600FCFDCF97BE46
:107F4000E89526C08437B1F42ED02DD0F82E2BD052
:107F50003CD0F601EF2C8F010F5F1F4F84911BD097
:107F6000EA94F801C1F70894C11CD11CFA94CF0C13
:107F7000D11C0EC0853739F428D08EE10CD085E9AC
:107F80000AD08FE07ACF813511F488E018D01DD067
:107F900080E101D065CF982F8091C00085FFFCCF94
:107FA0009093C60008958091C00087FFFCCF809118
:107FB000C00084FD01C0A8958091C6000895E0E648
:107FC000F0E098E1908380830895EDDF803219F02E
:107FD00088E0F5DFFFCF84E1DECF1F93182FE3DFCA
:107FE0001150E9F7F2DF1F91089580E0E8DFEE27F6
:047FF000FF270994CA
:027FFE00040479
:0400000300007E007B
:00000001FF
